:020000020000FC
:1000000006C03F065B4F66006D7D077F6F001124C1
:100010000FEF0AB903E004B900E007B903E008B93B
:100020001127309905C033D0309BFECF112700C077
:10003000319907C02CD0319BFECF1395143608F0B0
:100040001127012F22270A3018F00A502395FBCFE1
:10005000302F02D00BD0E5CFF0E0E2E0E20FF11D4F
:1000600004910BB9299A28980BD00895F0E0E2E0AA
:10007000E30FF11D04910BB9289A299801D0089536
:1000800044E158EC5A95F1F74A95D9F7089544E6BA
:0C00900058EC5A95F1F74A95D9F70895FD
:00000001FF
